:0300000002002CCF
:0100030032CA
:04000B0002027F323C
:0100130032BA
:01001B0032B2
:030023000202E1F5
:10002B0032C244C2B312025512026512022E307A4A
:10003B00FDC27AD299D2A0D2A1C2A2C2A375590095
:10004B00756000C23AC239C238744D1201FE746F2A
:10005B001201FE746E1201FE74691201FE747412A9
:10006B0001FE746F1201FE74721201FE74201201F4
:10007B00FE74641201FE74651201FE74201201FEFF
:10008B0074531201FE74651201FE746D1201FE743D
:10009B00611201FE74661201FE746F1201FE74721E
:1000AB001201FE746F1201FE740A1201FE740D121E
:1000BB0001FE753C3275F01410790B30900F3091B6
:1000CB003B30926701C3753C96B2A301C3203AF44F
:1000DB00C2A0D2A1C2A2D23AC239C2387453120101
:1000EB00FE74311201FE74301201FE74301201FEE7
:1000FB00740A1201FE740D1201FE01CF2039C5D214
:10010B00A0C2A1C2A2C23AD239C23874531201FEA4
:10011B0074301201FE74311201FE74301201FE7440
:10012B000A1201FE740D1201FE01CF203896D2A0E7
:10013B00D2A1D2A2C23AC239D23874531201FE7480
:10014B00301201FE74301201FE74311201FE740A7A
:10015B001201FE740D1201FE01CFD2A0D2A1C2A2D8
:10016B00C23AC239C23874531201FE74301201FE06
:10017B0074301201FE74301201FE740A1201FE7407
:10018B000D1201FE01CFC27E307EFDC27ED5E0F89E
:10019B0022D2B3755808C2B4754131D541FD7541B2
:1001AB0031D541FD1392B4754131D541FD754131C6
:1001BB00D541FDD558EED2B413754131D541FDC2B1
:1001CB00B32275580930B2FD20B2FD754131D541CE
:1001DB00FD20B21EA2B213754131D541FD754131DF
:1001EB00D541FDB2B6D558EC30B2FD3099FDC29970
:1001FB00F59922F599C2993099FDC299223098FD53
:10020B00C298E59922C0E054F0C4B40A004004241B
:10021B00378002243031FE103B08D0E0540FD23B24
:10022B0080E822D23D75400A22D23D754078203DB0
:10023B00FD22753814C27E753919C27C753A02C21B
:10024B007B753B02C27A75523C22758921758805F4
:10025B007587807598507596EA2275A89275B802C5
:10026B00758DF3D28CD28EC299C298513D512E7599
:10027B0040002232758A34758CF8C0D0C0E0303D16
:10028B0005B2B6020293D2B6D27FD54002C23DD59B
:10029B00383F753814D27ED53C02D279D5393275B8
:1002AB003919D27CD53A2A753A02D27B304405D221
:1002BB003F754064D53B1A753B02D27AD55702C2C3
:1002CB0044D5520575523C0551D54702D25ED546F1
:1002DB0000D0E0D0D03220980132C0E0C0D0C000B6
:1002EB00C001C298E599B44B04D23C31FED001D089
:1002FB0000D0D0D0E032104E08E7F60809D54CF903
:10030B0022E493F6A308D54CF822104E19E7F5F02A
:10031B00E63052081203534006C25222B5F02309AD
:10032B0008D54CE98018E493F5F0E6305208120337
:10033B00534006C25222B5F009A308D54CE8D3C2EC
:10034B005222924FC3C25222C0E064FF7004D0E02D
:10035B00D322D0E0C0E054F064F0700DE5F044F02F
:10036B00F5F0D0E0B5F01480E7D0E0C0E0540F64B6
:10037B000F70EFE5F0440FF5F080E7924FC322F6D4
:10038B0008D54CFB227596FAF0E59630E1FB759695
:10039B00EA22E67190A308D54CF8D322E0F6A30825
:0503AB00D54CF9D3223E
:00000001FF
